:020000040801F1
:1001000058240020F102010801030108030301083B
:1001100005030108070301080903010800000000A6
:1001200000000000000000000000000001020108C3
:100130000D0301080000000045020108659802084F
:10014000833901089B3901080F030108D5390108DB
:1001500051500408000000007D5104087551040846
:10016000675104087958010897580108C3580108D5
:10017000E3580108F74A0108FB4A0108FF4A010851
:10018000034B0108074B01080F030108DB37010887
:10019000BB4B0108E9250108F7390108A71401083C
:1001A00049150108D93B01081F1C0108231C01083F
:1001B000271C01082B1C01082F1C0108331C0108F7
:1001C000216201080F0301080F030108B92E01087D
:1001D00023520108472E01084D8501085B8501085F
:1001E000113C01085916010800000000DFF80CD08E
:1001F0004BF072FC004800475B0A010858240020BD
:100200001E4B19680868B0E8F00F80F30988BFF347
:100210006F8F4FF0000080F311884EF00D0E704785
:100220000000000006480068006880F3088862B695
:1002300061B6BFF34F8FBFF36F8F00DF00BF00BF0A
:1002400008ED00E072B6EFF30980BFF36F8F0B4B40
:100250001A6820E9F00F106008B518F047F8BDE8FB
:10026000084019680868B0E8F00F80F30988BFF308
:100270006F8F62B6704700BF00BF00BFC809002083
:1002800072B6704762B6704772B6704762B6704712
:10029000EFF305807047000010B507A04BF03EFE5D
:1002A0000DF0B2FB08A04BF039FEBDE810400CA1E8
:1002B0004FF4FA500DF075BD0A2075736572207405
:1002C00061736B0A000000000A20636F6E6E656345
:1002D00074206E657420737563636573730A000020
:1002E0003137322E31362E35302E333600000000B5
:1002F000074880474FF0000080F31088054800470A
:10030000FEE7FEE7FEE7FEE7FEE7FEE7FEE7FEE7C5
:10031000950E0108ED010108F9487047F94B10B539
:1003200003211960F74C0C34221F0A2804D11168EC
:100330008906FCD10D21216011688906FCD1C1B26A
:1003400021600021196010BDE8E74FF0FF307047D1
:100350002DE9F0430027079D3C46002904DA2D26AD
:10036000494200F8016B01274FF0300919B900F834
:10037000019B012416E091FBF2F602FB1616F6B281
:10038000092E15D90A3EF6B25FEA457C01D5413601
:1003900000E0613691FBF2F1641C00F8016B64B27D
:1003A0000029E8D1E90711D08446401E611E09E00A
:1003B0003036EFE7421A067892F8008000F801899B
:1003C0001670891E49B20029F4DC60464946202295
:1003D000A34209DDAE0702D500F8011B01E000F8D9
:1003E000012B641C64B2F3E73E190021641E00F87F
:1003F000011961B2EA0708D009E0421A03781478BB
:1004000000F80149891E137049B20029F5DC304615
:10041000BDE8F083F0B5002304280CD000260024AA
:100420000868E500E840C5B2280905F00F0509286D
:1004300037D9373036E0002064274FF00A0C4FF0F0
:100440002E0E0C68C500EC40E5B2B5FBF7F424B104
:1004500004F13006D6545B1CDBB2B5FBF7F607FBA4
:100460001656B6FBFCF616B13036D65402E01CB177
:100470003024D4545B1CDBB2B5FBF7F407FB1454F7
:10048000B4FBFCF50CFB15443034D4545B1CDBB2DC
:10049000401C02F803E05B1CC0B2DBB20428D0D3DE
:1004A0001AE03030D0545B1CD8B2092D01D9373551
:1004B00000E030351554401CC3B2E00703D03A20A9
:1004C000D0545B1CDBB2641CE4B2042CA8D3761CB1
:1004D000F6B2091D042EA2D3D118002001F8010C98
:1004E000581EF0BD2DE9F0478CB00F4604464FF082
:1004F000000959E0641C252802D0FFF70FFF53E0E4
:10050000002520782E462D2801D10126641C207854
:10051000302802D146F00206641C6FF02F012078CB
:10052000A0F13002092A07D805EB850201EB42024F
:100530001044C5B2641CF2E7C0B22E2806D114F8EC
:10054000010F30380928FAD900E0641C20786C28A3
:10055000FBD06828F9D0C0B264282BD010DC532817
:1005600067D006DC25281CD0432818D04D281AD186
:1005700009E1562877D058282FD0632813D10EE0F0
:10058000752817D006DC692814D06F283ED0732850
:1005900009D14EE0762867D0782804D11DE017F8FD
:1005A000040BFFF7BBFE641C20780028A2D10CB01E
:1005B000BDE8F08702CF01A880462B460A220096AC
:1005C0000B91FFF7C5FE03E008F10108FFF7A6FE57
:1005D00098F800000028F7D1E5E702CF0B912078CA
:1005E0000DF10408582801D146F004062B461022CC
:1005F00040460096FFF7ACFE03E008F10108FFF764
:100600008DFE98F800000028F7D1CCE702CF01A8B2
:1006100080462B46082200960B91FFF799FE03E0D7
:1006200008F10108FFF77AFE98F800000028F7D1DA
:10063000B9E757F8048B40464AF07DFD844665458E
:100640000FD9F0070DD1A5EB0C0ACDF82C9005E0E1
:100650002020FFF763FE0B98401C0B900B998A45F6
:10066000F6D8484607E058E01BE018F80000FFF70E
:1006700055FE0B98401C0B906045F6D3654592D90A
:10068000F00790D04846A5EB0C05CDF82C9005E07E
:100690002020FFF743FE0B98401C0B908542F7D8B3
:1006A00081E701CF0B9001AA0BA90420FFF7B2FE4E
:1006B000804645450FD9F0070DD1A5EB080C4846FB
:1006C000CDF82C9005E02020FFF728FE0B98401C69
:1006D0000B908445F7D80DF1040C03E00CF1010CEC
:1006E000FFF71CFE9CF800000028F7D145458CD987
:1006F000F0078AD0A5EB08054846CDF82C9009E014
:1007000058240020140801402020FFF707FE0B9812
:10071000401C0B908542F7D845E702CF01AA06207E
:10072000FFF778FE804645450FD9F0070DD1A5EBC0
:10073000080C4846CDF82C9005E02020FFF7EEFD90
:100740000B98401C0B908445F7D80DF1040C03E086
:100750000CF1010CFFF7E2FD9CF800000028F7D136
:1007600045459DD9F0079BD0A5EB08054846CDF837
:100770002C9005E02020FFF7D1FD0B98401C0B903A
:100780008542F7D80FE701CF01A900F03DF8804678
:1007900045450FD9F0070DD1A5EB080C4846CDF81B
:1007A0002C9005E02020FFF7B9FD0B98401C0B9022
:1007B0008445F7D80DF1040C03E00CF1010CFFF7B0
:1007C000ADFD9CF800000028F7D14545A4D9F007FD
:1007D000A2D0A5EB08054846CDF82C9005E02020D6
:1007E000FFF79CFD0B98401C0B908542F7D8DAE68A
:1007F0000FB410B503A90298FFF774FE10BC0020D7
:100800005DF814FB8AE5FEE770B500222D25845CB7
:1008100002EB4206230904F00F04092B01D93733F8
:1008200000E030338B5502EB4203092C0B4401D915
:10083000373400E030345C7002EB42030B44521C4E
:100840009D70062AE3D302EB420000230144401EC0
:1008500001F8013C70BD00002F4908432F49086092
:10086000704730B50F23C27801780125F2B12B4AC9
:10087000126801F1E02102F4E062C2F5E062120ABE
:10088000C2F10404D3404278A24084781C4014434F
:10089000220181F80024007800F01F018D404009FA
:1008A000800000F1E020C0F8005130BD01F01F00D1
:1008B00085404809800000F1E020C0F8805130BD3B
:1008C00008B58DF8000001208DF8010000208DF89A
:1008D00002008DF803106846FFF7C3FF08BD104AF9
:1008E000114001430D48001F016070470B4A121D63
:1008F0000029116801D0014300E081431160704775
:100900004FF0E0210428086903D020F004000861BA
:10091000704740F00400FAE70000FA050CED00E033
:1009200080FFFF1F0EB5684600F0A2FA5C490198EF
:1009300048435C490968B0FBF1F0401EB0F1807F8C
:100940000AD24FF0E0214861574AF02082F8140D96
:1009500000208861072008614FF44070FFF77CFF9A
:100960000EBD10B505F05FFC30BF10BD704710B56F
:1009700005F0E4FF042005F042FD052005F054FDDC
:100980001B2005F0A7FD1C2005F099FD022005F0B5
:10099000B2FC0B2005F09AFC032005F0C6FCBDE874
:1009A0001040092005F0DBBC0EB540A0D0E90010D6
:1009B000CDE9001000208DF80800FFF7D8FF08F0FF
:1009C0006DFA02F063F805F083FB05F095FA06F086
:1009D000E6FE03F07EFE0CF01FF80CF0E8F8354858
:1009E00003F0F0FF07221146334834F05FFF6846FA
:1009F00003F091FF00226946104634F0A1FC6846DE
:100A000034F0B0F924F090FB00F0B6F914F0D7FC04
:100A100016F0D1FB17F026F826F007FE012202A9F6
:100A2000162006F082FC9DF80800012807D001205E
:100A30008DF80800024602A916200CF0DBF9FFF73A
:100A40002BFC00F057F901210420FFF74FFF4FF076
:100A50008054204618F03EFBFBE71FB5002004F051
:100A60007BF8002004F068FF002018F0CAFB012189
:100A7000124818F086F80023114801224FF49651CD
:100A80008DE80F00AFF2DF021946184617F065FB3C
:100A9000FFF748FF18F06FFC04B0002010BD70474E
:100AA00040420F0048D605080FE000E00025080985
:100AB000010F0000C83F012000C0032004000020F7
:100AC000D825002030B5A1B0662006F048FB040010
:100AD0004ED0282006F043FB05004BD0012211A97F
:100AE0002C2006F022FC11A92046199A4AF0BCFAE3
:100AF000199900200122605404F121012E2006F0F2
:100B000014FC012204F12201312006F00EFC012226
:100B100069462F2006F009FC9DF8400084F8250066
:100B20009DF8420084F823009DF8410084F82400D9
:100B30009DF84020694604F126004AF095FA01220A
:100B40001AA9302006F0F1FB1B9828601C986860F9
:100B5000002205F10801142006F0E7FB2946204693
:100B600039F028F9204606F032FB284606F02FFB24
:100B700021B030BD2046F9E700B59FB0FF208DF8C9
:100B80006C0000208DF878001BA939F0CDF89DF895
:100B90006C0000282CD003282CD001221EA90A208A
:100BA00006F0C3FB9DF87800012803D0042830D05C
:100BB00005281DD101221CA9062006F0B6FB012242
:100BC00012A9002006F0B1FB012201A9262006F09F
:100BD000ACFB9DF870000028119812D0C0B20090B4
:100BE0001A9801ABC1B20DF1720212A839F014F8D3
:100BF0001FB000BD01208DF86C001BA939F094F8DE
:100C0000F6E7C3B21A9801AAC1B212A838F092FF4F
:100C1000EEE7FFF757FFEBE794B000248E4D8DF819
:100C2000384000231A460FA9286818F08DF80028CC
:100C3000F7D10F980068082846D2DFE800F0450495
:100C4000323235072C2F00F0B3F83DE08DF800402C
:100C500000226946142006F068FB002208A9302013
:100C600006F063FB24F032FB099810900A9811906B
:100C70000B98129012AA11A910A824F03AFB9DF823
:100C8000200008B124F0E9FA9DF80000E0B16846C0
:100C900024F012FB18E000F0C0F815E000F0BDF8F9
:100CA00010E000F0C3F80FE00EA9002039F03CF886
:100CB0009DF83800032805D101208DF838000EA9D1
:100CC00039F032F8FFF758FF0F9806F080FAA8E7DE
:100CD00070B505460C46082006F041FA010008D020
:100CE0005D48C1E900540068BDE87040002217F07B
:100CF000DBBF70BD00210420EAE71CB500218DF8A0
:100D000000108DF8041008282AD2DFE800F029042A
:100D1000070A0D2A2D30002101202AE0002103209E
:100D200027E00021022024E0012024F01BFA012208
:100D300001A9162006F0F9FA00219DF8040039F007
:100D40002DF9012269460A2006F0EFFA9DF800000D
:100D5000400705D539F0ADF8032801D0FFF7B2FE02
:100D60001CBD0021052004E00021072001E0002136
:100D70000620FFF7ADFF1CBD1FB51421364817F044
:100D800071FF18B14FF0FF3004B010BD002333489D
:100D900011224FF480618DE80F00AFF2831230A171
:100DA000184617F0DAF9314824F03BFA0020EBE757
:100DB00000B58BB000226946032006F0B6FA9DF814
:100DC000000070B1002006900790089008AA07A9BB
:100DD00006A824F0EFF924F0F5F924F0C7F90BB0D8
:100DE00000BD24F0C9F924F0EDF9019806900298AD
:100DF00007900398089008AA07A906A824F0DAF932
:100E00000498099005980A9009A9002024F0D8F9BF
:100E10000AA9012024F0D4F9E1E710B524F052FA30
:100E200024F020FABDE8104024F05DBA00B587B088
:100E300000226946032006F078FA9DF8000008B108
:100E400024F09AF9002024F08DF924F0C6F9FFF778
:100E500093FE07B000BD0000080000209838002075
:100E6000537973205461736B00000000FB0C010880
:100E7000F84909682823C1F30312B3FBF2F30360B6
:100E800001F00F03A021B1FBF3F3B1FBF2F1C0E9D4
:100E9000013170470EB56846FFF7EAFFEE4900984A
:100EA00048434FF4E111B0FBF1F2B0FBF1F301FB69
:100EB00013000001B0FBF1F0E849521E42EA004085
:100EC0000860E6494320103908600020091D0860C9
:100ED000091D0860091D0860E049FF20091D086020
:100EE0000EBD1EB504466846FFF7C2FFDA490098FA
:100EF00048437CB16FF00C00012C2AD0022C08D1A1
:100F0000D74A242111604421121F1160D4490831AD
:100F100008601EBD4FF4E111B0FBF1F2B0FBF1F33C
:100F200001FB13000001B0FBF1F0CC49521E42EA74
:100F300000400860C9494320103908600020091D9D
:100F40000860091D0860091D0860C449FF20091DCB
:100F5000DEE7C44A242111604421121F1160C149F7
:100F60000831D5E7C04A002152F82130834201D12F
:100F700001207047491C1129F6D34FF0FF3070470C
:100F800018B1416A09B100697047002070473EB549
:100F900005460C460846FFF7E5FF002802DA4FF049
:100FA000FF303EBD6846FFF763FFAB48009A230160
:100FB0004243B2FBF3F103FB11210901B2FBF3F051
:100FC000B1FBF3F1401E40EA0140696A086100206C
:100FD0002C613EBD4FF0FF3228B1417529B1022985
:100FE00008D0012910D010467047406A016821F0EE
:100FF000080112E0416A0A6822F018020A60406A99
:10100000016841F0080108E0416A0A6822F018020C
:101010000A60406A016841F01801016000207047D1
:10102000407D704710B54FF0FF3360B10175426AE3
:10103000146824F00304146039B1012908D002298E
:101040000BD003290ED0184610BD406A01680DE090
:10105000406A016841F0010108E0406A016841F01E
:10106000020103E0406A016841F0030101600020D1
:1010700010BD007D704748B1C175406A0129016803
:1010800007D021F004010160002070474FF0FF30CD
:10109000704741F00401F6E7C07D7047002210B1AF
:1010A00039B1012901D001207047817D012902D188
:1010B0001921406A4160104670472DE9F04105460C
:1010C000603080464026002705F078FCD0B3686F7A
:1010D00000283ED0BDE8F04117F074BD404605F051
:1010E0006DFC08B1002414E0D8F8004011E0686AF3
:1010F000C2692B6A02F03F029A4201D1012710E037
:10110000A268515C0162E089401CE081E86B401CF0
:10111000E863301EA6F1010603DDE189A089814262
:10112000E5D3E089A18988420CD3204605F03CFC38
:10113000214605F1680005F02FFCD5F8841009B1AF
:1011400028468847404605F039FC002801D1002F89
:10115000C4D0BDE8F08110B50B46E0B1434C012886
:101160001BD004F58C7419462046A361FFF796FF47
:10117000A07D01280ED1002B0CD194F8700000281E
:1011800008D0204605F021FC2046FFF796FF0020FE
:1011900084F8700010BD354CE5E78C34E3E7406A15
:1011A000016821F0800101607047406A016841F0E8
:1011B00080010160704770B50D4604004FF0FF36A6
:1011C0002CD05DB32968FFF7E2FE69792046FFF76E
:1011D00001FF29792046FFF725FFE9792046FFF72F
:1011E0004AFFA879A075A9792046FFF757FF606AE2
:1011F0008661616A00204861616A24208860616AB2
:101200003F20C860606A016821F0C0010160606A27
:10121000016841F0C0010160002070BD304670BD22
:1012200010B50446806901282CD1A07D012829D160
:101230002068012826D194F87000C8B1002921D077
:10124000002084F87000204605F0BFFB2046BDE872
:10125000104032E71007004040420F0010080140E4
:101260000C1C01400C0A014004CA0508403E002045
:10127000002907D1012084F87000606A016821F01C
:101280004001016010BD0A2905D1426AD3699B065D
:10129000FCD10D231362426AD3699B06FCD1C8B20C
:1012A000106208467047406AC16911F4707F01D02E
:1012B000006B704700207047002801D005F087BF01
:1012C000704770B50546002417F0D6FD55F8601F2D
:1012D00003E08A890968224494B2A942F9D117F03F
:1012E000D4FDC4F5805070BD2DE9F0410746164687
:1012F0008846182005F033FF04004FF0FF351CD05E
:1013000024606460304605F02AFFA060B8B1324620
:10131000414649F0A9FEA6810025E581FE482061ED
:10132000A068606117F0A8FD0646214607F160003D
:1013300005F032FB304617F0A8FD284609E72046A5
:1013400005F045FFF9E72DE9F041054617F094FD5A
:10135000074605F16808002619E0404605F02EFB17
:1013600008B1002400E0AC6E204605F01DFB3846B5
:1013700017F08BFDA06838B1A660216909B16069DA
:101380008847204605F023FF17F076FD07464046C4
:1013900005F014FB0028E0D0384617F076FD002059
:1013A000D7E62DE9F041054600F16004202617F04C
:1013B00063FD0746204605F001FB48B1384617F0AB
:1013C00064FD686F00283FD0BDE8F04117F0FABB1C
:1013D000204605F0F3FA08B1002411E024680FE07C
:1013E000686AC2692B6A02F03F029A4210D0A26872
:1013F000515C0162E089401CE081E86B401CE863BD
:10140000301EA6F1010603DDE189A0898142E7D300
:10141000E089A189884212D3204605F0C5FA214609
:1014200005F1680005F0B8FA384617F02EFDD5F83A
:101430008410002908D02846BDE8F0410847384606
:10144000BDE8F04117F021BD83E610B5012829D190
:10145000B24C94F8A8008C3450EA010222D0012842
:1014600001D101291ED051B117F006FDAB49D1F8C9
:10147000B0104A6922F482724A6101210DE0A07D18
:1014800001280FD1A06901280CD117F0F5FC616A81
:101490004A6942F482724A6100212177BDE8104016
:1014A00017F0F3BC10BD2DE9F0419C4D002705F16C
:1014B0005404686A8669866116F4F67F34D0686AD7
:1014C0004169490730D4C069C0F3851025E0696AD5
:1014D0000A6B16F0E00F02F0FF0804D08A6942F0B0
:1014E000E0028A6119E02189A288891A491EC1F3A4
:1014F0000B01022907D8A869012810D1002128680A
:10150000FFF7A3FF0020D4E9002302F80380A1889D
:10151000491CC1F30B017F1C6160401ED7D2D5F876
:10152000801009B1B8B28847B00702D02846FFF74B
:10153000C4FDF00607D5686AC06900F480512846EA
:10154000BDE8F0416CE604E62DE9F0417349002264
:1015500001F18C04606A85698561E031E80511D587
:10156000606A836943F48073836194F8880048B1AA
:10157000606A836823F001038360606A836843F0D4
:101580000103836015F4F67F53D0606A43695B07FB
:101590004FD4C0690023A3608F888B68C0F3851087
:1015A000DF1B7F1EC7F30B070646802F17D880333B
:1015B000C3F30B038B6012E0636A1A6B15F0E00F44
:1015C000D2B204D09F6947F0E0079F6107E0D1E9FC
:1015D0000037DA558B885B1CC3F30B034B60401E4E
:1015E000EAD2032E20D12B2A1ED1486803220346BB
:1015F000401E08D0012808680FD0184410F8021CBB
:101600002B2925D010E0086890F8FF1F2B290BD15B
:1016100090F8FE0F06E0A26006E001782B2903D1C6
:1016200090F8FF0F2B28F6D0D4F8801009B130467F
:101630008847A80702D02046FFF73FFDE8060AD5F5
:10164000606AC06900F480512046BDE8F041E7E5DA
:1016500010F8030CE6E77CE52DE9F0412F4D00275B
:1016600005F58C74606A8669866105F5B675F005C6
:1016700011D5606A816941F48071816194F88800B4
:1016800048B1606A816821F001018160606A816807
:1016900041F00101816016F4F67F35D0606A41693E
:1016A000490731D4C069C0F3851025E0616A0A6B2F
:1016B00016F0E00F02F0FF0804D08A6942F0E00261
:1016C0008A6119E02989AA88891A491EC1F30B0188
:1016D000022907D8A069012810D100212068FFF74E
:1016E000B4FE0020D5E9002302F80380A988491C34
:1016F000C1F30B017F1C6960401ED7D2D4F8801063
:1017000011B10FB1B8B28847B00702D02046FFF739
:10171000D4FCF0060CD503E0B9120108403E0020CD
:10172000606AC06900F480512046BDE8F04177E569
:101730000FE510B5044640B205F007F92046BDE8B4
:1017400010400121FFF7BCB8F74A30B1012807D09B
:10175000022801D1C2F89C117047C2F8841070476A
:10176000C2F8101170470021FFF7AAB82DE9FC4715
:1017700016460F460546FFF7B4FB4FF0FF3925B17B
:10178000012D09D0022D10D069E08C21E64849F0E6
:1017900093FCE54CE54806E0E3488C218C30044698
:1017A00049F08AFCE24860620CE0E2488C21044681
:1017B00049F082FCE0486062012E01680BD021F004
:1017C000807101600026256047B139462046FFF749
:1017D000F2FCE8BB10E041F08071F2E74FF4E13039
:1017E000009003208DF804008DF806608DF80560E8
:1017F0008DF807606946E9E70120207745B1012DA2
:1018000008D029206060FFF7AEFF606D20B10EE0C8
:101810001720F7E71820F5E74FF48058404605F009
:101820009EFC07001BD0414649F046FC676510202E
:10183000A665206204F16000C4E9176060660830A4
:10184000A066AFF2FD41E0662846FFF77DFF00E0AD
:1018500005E02079FFF76DFF0020BDE8FC874846D2
:10186000FBE7B14A30B1012807D0022801D1C2F804
:1018700098117047C2F880107047C2F80C11704779
:101880002DE9F0410E004FF0000406D02AB138B126
:10189000012807D0022808D008E04FF0FF3058E4B4
:1018A000A14C03E0A04C8C3400E0A24CB4F85810DA
:1018B000E06D5434091AC1F30B01914210DB154657
:1018C0004119B1F5805F0DD92168C0F580570144F9
:1018D0003A46304649F0C8FBEA1BF019216804E09B
:1018E000002036E421680144304649F0BDFB2089E0
:1018F0002844C0F30B00A06028462AE4072800D93A
:10190000D9B100EB4000000100F180408B68C0F8C5
:101910001034CB68C0F8143402B101224968C1F315
:10192000160142EA4101C0F82C14D0F8241441F009
:101930000101C0F824140020704701207047F0B462
:101940007E4F3D6844000326A6402E4303FA04F56B
:10195000AE433E607A4E00EB8004DD0706F824308B
:1019600003D006EB8405C5E901129B0703D506EBFE
:101970008403C3E90312032800D90420F0BC0D300E
:10198000C0B2D6E670B500246E4D0E46224638B180
:10199000411E072916D2295C090610D4044611E01D
:1019A000A85C000601D4D4B202E0521C082AF7DB7E
:1019B000082A07D164A04AF0B1FA002402E062A02C
:1019C0004AF0ACFA46F08000285504EB44000001D0
:1019D00000F18040C0F82864204670BD2DE9F04732
:1019E0001F460D465FEA0008C3EBC7004E4900EBF7
:1019F000800086B0924601EB80044FF0FF3910D092
:101A00007DB1B5F5805F0CD294F8880048B94B4899
:101A10000830076005210220FFF7B4FF06460228C0
:101A200003D0484606B0BDE8F087606A816821F0BF
:101A30000101816002233A4651463046FFF77FFF9D
:101A4000CDF80880606A01272030039007EBC510AD
:101A50000190F80700900020024604906946304645
:101A6000FFF74CFF84F88870606A816841F00101DB
:101A700081603249086820F0200008600F20FFF7DD
:101A800058FE0020CEE770B5002431B12AB10128FC
:101A900006D040B1022808D008E04FF0FF3070BDFA
:101AA000214C8C3402E0204C00E0224C2046FFF711
:101AB0001BFC050002D12046FFF773FC284670BDD1
:101AC000C0EBC000184900EB800001EB8000C06B48
:101AD00070472DE9F041002416460F4605460128BF
:101AE00003D02DB1022D05D005E00F4C8C3402E05F
:101AF0000D4C00E00F4C002104F1740017F041F888
:101B000010B14FF0FF3019E4324639462846FFF74E
:101B1000BAFF18B90021606F17F043F8606F17F033
:101B20003BF80020606709E4403E002000080140C7
:101B3000000A0140583F0020001C01400004004002
:101B4000344300206C0000202121217468657265F7
:101B5000206973206E6F206672656520444D4120B8
:101B60006368616E6E656C2E2121210A0000000001
:101B7000012805D030B1022807D04FF0FF30704760
:101B8000F94804E0F8488C3801E0F7488C30FFF75A
:101B900021BA012805D030B1022807D04FF0FF301C
:101BA0007047F14804E0F0488C3801E0EE488C3092
:101BB000FFF7EDB9012805D030B1022807D04FF06A
:101BC000FF307047E84804E0E7488C3801E0E64819
:101BD0008C30FFF750BAE44A0021C0EBC00000EBA4
:101BE00080008C3A02EB800080F88810084670472D
:101BF000DE4A30B41168C0B200EB80040123241D1A
:101C0000A34019431160DA4A52F83010002904D079
:101C100002EBC000406830BC084730BC7047002071
:101C2000E6E70120E4E70220E2E70320E0E7042002
:101C3000DEE70520DCE7FEB5CE490546012408783D
:101C4000224602FA04F7074203D0641CE4B2062CD1
:101C5000F7D3062C38D01746A2400243C4480A7076
:101C6000E96840F8341000EBC40029694160684617
:101C7000FFF7FEF8BD490098091F401E0860081DC7
:101C80000668297A11B304EB8401491C07FA01F1B3
:101C90008E432978012920D004EB840107FA01F151
:101CA0008E4304EB8401091D8F4037430760686849
:101CB00018B1AE49091D41F8240004F11A00C0B260
:101CC000FFF737FD2046FEBDFF20FEBD04EB84027A
:101CD000521C07FA02F10E43DBE704EB840207FA19
:101CE00002F10E43DDE730B5A24B012202FA00F10A
:101CF0001B7819420CD09D4B196800EB8000C41C66
:101D00001546A2401143801C05FA00F211431960E8
:101D100030BD30B59749012404FA00F309780B422D
:101D20000DD092490A6800EB8000051D2346AC40A7
:101D300022430A600A68801C83409A430A6030BDCF
:101D400030B50C468B49054601200978A840084269
:101D50000BD02846FFF7DDFF1CB18448001D40F87A
:101D600025402846BDE83040BDE730BD70B5814E06
:101D7000044601253078A54005420CD02046FFF7E7
:101D8000C8FF7B49002041F8340001EBC4014860E2
:101D90003078A843307070BDFEB50D4606004FF098
:101DA000000413D01A20FFF7DEFC7048001D066007
:101DB0006846FFF75DF86D490098091F401E0860EE
:101DC0000B1D1A68012D03D02DB106E02046FEBD83
:101DD00042F0010201E022F0010242F01E021A600C
:101DE0001968C806FCD542F0100018601A20FFF7E9
:101DF000A0FCEBE7604A116830B1012807D0022847
:101E00000AD003280FD10CE021F003010BE021F0F0
:101E1000030040F0020106E021F0030040F0010160
:101E200001E041F003011160704754494FF6FF7023
:101E30000860091D086070473EB54F490546091FF7
:101E40004FF48000144608600B685B02FCD46846BF
:101E5000FFF70EF84A49009848436100B0FBF1F0E3
:101E60004549091D401E086043480021016045F0B6
:101E7000040101604049FF200C310860FFF7D5FFE5
:101E80003EBD3D4A00204FF4A0031432401C98424E
:101E900002D36FF0020070471168C904F6D4002025
:101EA0007047072801D90120704700EB400000016E
:101EB00000F18040D0F82414C90709D0D0F82414C8
:101EC00041F00201C0F82414D0F82414C907FBD152
:101ED0000020704730B50246082818D2FFF7E1FF0E
:101EE000002102EB4200000100F5826000F1804019
:101EF000016041608161C1612048001D0468550096
:101F00000323AB401C4304601A486030815430BD49
:101F100070B5002400EB400005014FF4FA7605F19E
:101F2000804508E0012017F0D5F8641CB44202D9BE
:101F30004FF0FF3070BDD5F82404C007F2D170BD5A
:101F40002DE9FF4F89B04FF0000B1C460F465FEAAA
:101F50000009CDF818B015D0FFF793FFA8B16FF0C6
:101F600002000DB0BDE8F08FCC3E0020040E014011
:101F7000983C00200C0000200404014000040040B4
:101F800040420F004FF0FF30EBE7FF484FF4800175
:101F900001608246DAF800004002FBD40B9810B1D1
:101FA000F94820300460B80702D027F0030400E0AD
:101FB0003C46B4F1000854D040F6FC70B4FBF0F09D
:101FC000079015210120FFF7DDFC0026059042E077
:101FD000C6EB862109EB81000290EB4840F6FC75C8
:101FE00020300390AC4200D8254615B3212040EAAA
:101FF000C51001904FF00040009000200246049070
:1020000069460598FFF77AFCDF4801210C30016032
:10201000DD49DE481C3108600B9800B156B1DC4840
:1020200040EA8511CAF80010FFF72BFF60B16FF08E
:10203000020B13E0A801D64900F580700843CAF8E6
:10204000000001200690EFE70598FFF761FF0028E8
:10205000EDD1641B761C07988642B9D90598FFF725
:1020600039FF47452CD900210B460846A7EB080449
:1020700007E008EB000519F80520C500AA40114348
:10208000401C8442F5D8C04820300160BE48002181
:102090000C300160BC49BD481C3108600B9810B180
:1020A000069800B90423D919B948A1EB080140EA00
:1020B0008111CAF80010FFF7E4FE08B16FF0020BBF
:1020C0000020CAF80000B0490C310860AE491C314C
:1020D0000860584645E72DE9FF4F87B0002707986D
:1020E0001E46944688463C46059728B1FFF7C9FE30
:1020F00028B1F81E0BB035E74FF0FF30FAE7A249E0
:102100004FF48000086008688B464002FBD45FEA09
:10211000887002D028F0030500E0454640F6FC70C8
:10212000B5FBF0F000F0FF0A701EA9461F2812D878
:10213000954A002020320BE018B1810701D11760C9
:1021400000271CF800108307DB0E99400F43401C4A
:10215000B042F1D3176011210120FFF713FC069064
:10216000894830300027029057E0B9F1000F1ED0A7
:102170000798C7EB872100EB810040F6FC740390C1
:10218000A54200D82C46A4B3242040EAC4100190F4
:102190004FF00040009000200246049069460698E7
:1021A000FFF7ACFB784802210C30016003E0764970
:1021B00000200C310860744874491C300160BAF189
:1021C000000F0AD067B1574514D104EB08017148DC
:1021D000A1EB090140EA81110FE008EB060000E0E5
:1021E000A01980016C4940EA86600843CBF80000E2
:1021F00005E014E0674840EA8411CBF80010FFF7CF
:1022000040FE18B16FF00200059008E00698FFF755
:102210007FFE0028F6D12D1B7F1C5745A5D90698B7
:10222000FFF758FEC84506D957483030006807996F
:1022300029F0030288500020CBF8000052490C31ED
:10224000086051491C310860059853E7534901283B
:10225000896881F8280005D0022806D148790A68E3
:102260000021E9E5002004F0B6BB704716F0AABCD7
:102270002DE9F84F05000F464FF000060CD05FB176
:102280000C4600216A46084604F0D4FB9DF8000085
:10229000A04205D9214604E04FF00000BDE8F88FC8
:1022A0000146C1F38F0800D9204600F003034FF028
:1022B0000002DFF8ECA0DFF8E4902DE0A86820B37E
:1022C000D9F8081091F8281011B1012918D01EE092
:1022D00029690026091B10F801C046EA0C6601F1C5
:1022E000010C10F80CC046EA0C4601F1020CC91CA6
:1022F00010F80CC046EA0C2C465C46EA0C0606E0D8
:1023000029690844001B066801E04FF0FF36CAF84F
:102310000060521CD2B2241F4245CFD303B3002128
:102320000846CC4618E0AA681AB12E69361B925DA1
:1023300000E0FF22DCF8086096F8286016B1012E54
:1023400004D006E0C0F10306F60000E0C600B2408B
:102350001143401CC0B2641E9842E4D3CAF8001076
:10236000381B9BE72DE9F84F05000F464FF000069C
:1023700022D00FB30C4600226946104604F05AFBE7
:102380009DF800000EE0000000040140FD6D168085
:102390000300280003003000030038000C00002078
:1023A000200401404FEA900900F003020021DFF809
:1023B000B4A4DFF8B4B439E000206FE7DAF8000025
:1023C000EB6853B3DBF808C09CF828C0BCF1000FE1
:1023D00003D0BCF1010F21D025E0D5F810C000BA20
:1023E000ACEB040C03F80C00D5E903C8A8EB040817
:1023F00008F10108030A0CF80830D5E903C8A8EB76
:10240000040808F10208030C0CF80830030ED5E9A3
:1024100003C0001BC01C0CF8003004E0D5F810C04D
:1024200063441B1B1860491CC9B2241F4945C5D30E
:102430000AB3DAF80010E868F0B10020D84618E0D6
:10244000D8F8083093F8283013B1012B04D007E0F6
:10245000C0F10303DB0000E0C30021FA03F3DEB2A6
:10246000D5E9033CACEB040C401C03F80C60C0B293
:10247000641E9042E4D300E0A41A381B0EE770B546
:10248000F94DA868083004F099FA08B1002401E079
:10249000A868846844B1204604F0E9FAA968086293
:1024A0000120A061204670BD002070BD70B5EE4CCB
:1024B0000546A068817969B14079FFF79BFCA06867
:1024C000007904F095FAA068006804F09FFAA1680A
:1024D00000208871E34C4FF6FF70303C00EAC501E4
:1024E0002068E24A104040EAC1012160002004F067
:1024F0007FFA206840F00100206070BD70B5DA4EB0
:10250000B0688469056A002C3DD0002D3BD0416A3B
:102510002846FFF727FF0146B068426A511A416218
:1025200021D1006916F03DFB284604F03DFAB06861
:10253000806904F09CFAB168086258B9012004F07F
:1025400057FA0220A061204604F02EFAFFF797FF09
:10255000B1688861B068006916F034FBB068056A3C
:102560000DB129694162B068416A2846FFF780FED3
:1025700008B1FFF79BFFA069022804D1D4E9041039
:10258000BDE87040084770BD08B5B74C0023042271
:10259000A0686946406916F0D7FB0028F6D100987C
:1025A0000528F3D2DFE800F0030403031D00EDE784
:1025B000A06881690029E9D1006916F0F2FAFFF7F5
:1025C0005EFFA1688861086916F0FCFAA268106ACB
:1025D0000028DBD001695162FFF74AFEFFF766FF72
:1025E000D4E7FFF78BFFD1E770B59E491C390C6823
:1025F0000A68E0B2824310430860081F00689A4DE1
:10260000C0B28443E00705D0A868042202214069D3
:1026100016F04AFBA00705D5A868042203214069EB
:1026200016F042FB60060ED5A86890F82810012924
:1026300006D04069BDE870400422114616F034BB54
:10264000BDE870405AE770BDFEB5874E044615469A
:10265000B3685879A04205D11879884202D1186828
:10266000A84228D044B1012C06D0022C04D0032C5F
:1026700002D06FF00600FEBD5C71012903D011B1DC
:102680004FF0FF30FEBD19716846FEF7F1FBB5F55E
:102690007A7F05D3764900984843B5EB500F02D9AD
:1026A0006FF00500FEBDB068056090F828100229A3
:1026B00003D0012181710020FEBD2A460021204661
:1026C000FFF7BAFBF7E72DE9F041674E0446B06823
:1026D00048B14FF0FF37ECB104F10800054604F0B3
:1026E0006DF9B8B903E06FF00300BDE8F081A068B0
:1026F00002E0016971B10068A842FAD1B068002116
:10270000006916F04EFAB068083004F057F918B1B5
:10271000012502E03846E8E700250020A061B06806
:102720002146083004F038F9B068006916F04AFA1A
:102730002DB1B06804220121406916F0B5FA0020DD
:10274000D3E738B504460021684616F01AFA10B1EE
:102750006FF0010038BD0098606146482061204656
:10276000FFF7B1FF050003D10021009816F019FA18
:10277000009816F011FA002060612061284638BDEB
:102780002DE9F041174694B01D460C4606004FF067
:10279000FF3226D02CB327B31DB33349886890F895
:1027A0002830022B18D00CA804F058F930216846C4
:1027B00048F082FC0EA8049469460296044604F090
:1027C000EBF8CDE90975204606A904F0E5F80CA858
:1027D000FFF7B7FF14B088E7B5F5FF5F01D8202CED
:1027E00001D91046F6E788460069002116F0D9F9AC
:1027F0003146214E2246304648F036FCE3B21E4CAC
:102800003246203429462046FFF765FC2A462146F9
:10281000384648F029FCD8F80800006916F0D2F9CB
:102820000020D7E7F0B58DB00C4605004FF0FF371C
:1028300024D01CB30C4EB06890F8281002291FD089
:10284000182107A848F038FCCDE90A54684604F07E
:1028500005F907A902A804F09FF86846FFF771FF81
:102860000DB0F0BD300401400C000020070078805E
:1028700040420F006D220108008003203846EFE738
:102880000069002116F08DF9042C26D8F94F4FF479
:102890008000386038684002FCD44FF6FF70F6497B
:1028A00000EAC40041EAC0003860FFF7EAFA38687D
:1028B00040F004003860EF4830300268002004E047
:1028C000C30022FA03F12954401CA042F8D300208F
:1028D0003860E8490C31086013E0B4F5FF5F04D9B3
:1028E000B068006916F06EF9C8E7E44F00231A4695
:1028F00021463846FFF7EFFB22463946284648F086
:10290000B3FBB068006916F05DF90020A8E72DE977
:10291000F0418EB00C4606004FF0FF3818D0BCB125
:10292000D74FB86890F82810022913D0182107A8AB
:1029300048F0C2FB684609960B9404F08FF807A98B
:1029400002A804F029F86846FFF7FBFE0EB0CCE6BB
:102950004046FBE700250069294616F022F9042CC1
:102960002DD8DFF810C34FF48000CCF80000DCF85D
:1029700000004002FBD4002004E0315CC200914022
:102980000D43401CA042F8D3BA48203005604FF6F2
:10299000FF70B94900EAC40041EAC000CCF8000069
:1029A000FFF76FFADCF8000040F00400CCF80000FC
:1029B0000020CCF80000AF490C31086013E0B4F5FA
:1029C000FF5F04D9B868006916F0FCF8C0E7AB4DAA
:1029D00022463146284648F047FB00231A46214646
:1029E0002846FFF7ADFAB868006916F0EBF800204A
:1029F000ACE72DE9F041174694B01C460D460600A1
:102A00004FF0FF3223D015B30FB304B39C4988684D
:102A100090F82830022B17D00CA804F01FF83021B2
:102A2000684648F049FB0EA804956946029605469B
:102A300003F0B2FF284606A908970A9403F0ACFFFA
:102A40000CA8FFF77EFEC5E6B4F5FF5F01D910467E
:102A5000C0E688460069002116F0A3F83146874E8B
:102A60002A46304648F000FB22463946A81948F06D
:102A7000FBFA002329191A463046FFF761FAD8F805
:102A80000800006916F09EF80020A3E62DE9FF413A
:102A90007B4EB06818B16FF0020004B025E62C2020
:102AA00004F05DFB04006FF0010706D0012104F182
:102AB000100016F066F810BB01E03846EDE708217B
:102AC00004F1140016F0CEF818B1206916F064F87D
:102AD00015E06C4A0025009213204FF40071039515
:102AE000CDE90110684A69A12846B36815F035FBA5
:102AF00048B1206916F050F8606916F0C8F8204611
:102B000004F065FBD9E76348206025716571A57104
:102B100004F10800A060A561E56125626562E060DE
:102B2000B460544C206840F480002060012003F021
:102B300052FF0020FFF78AFBB0684079FFF75AF98F
:102B4000012003F055FF206840F002002060B068CB
:102B5000006803F05BFF47480C30016821F01C015E
:102B60000160016841F4E0710160206840F4801068
:102B70002060206840F4002020603E491031086841
:102B800020F0400008601520FEF7D3FD002084E708
:102B90006FF0040070472DE9F0410E46102804D371
:102BA0001038C5B24FF4C06401E00546002416F0A9
:102BB00063F93949621817680121A94041EA0703FE
:102BC0001360354B1B1F23441C6816B12143196049
:102BD00001E08C431C601760BDE8F04116F055B968
:102BE000F0B52D4D01240C352F1D4FF4C06307F1B6
:102BF000040CA0F11002012914D0022926D0D61C01
:102C000003294DD0042968D0052976D0062946D15C
:102C1000911F0C2943D91739022940D910286DD3A7
:102C2000D0B287E029283AD02A2838D02D2836D0AB
:102C3000102801D3D0B200E0002359190A6884405B
:102C400022430A60D8190168A14342E01D2826D01A
:102C50002B2824D02F2822D0102801D3D0B200E076
:102C6000002359190A68844022430A60D819016870
:102C7000A1434DE000040140030038002080032000
:102C80000C000020E43F002089250108686F737460
:102C90007370690080841E00040C01400160E0E54F
:102CA0002328FCD02428FAD02728F8D20028F6D0F0
:102CB0000728F4D0022EF2D9102801D3D0B200E0B8
:102CC000002359190A68844022430A60D819016810
:102CD0002143016003EB0C0039E00028DFD001281C
:102CE000DDD00628DBD0022ED9D9022AD7D9232855
:102CF000D5D2102803D3D0B202E00FE019E00023B0
:102D000059190A68844022430A60D819016821438E
:102D1000016003EB0C0001682143BFE7102801D3D9
:102D2000D0B200E0002359190A688440A2430A6027
:102D300097E5002359190A688440A2430A60F948BC
:102D400018440168A1430160F648001D1844016859
:102D5000A143A3E7F0B516460F46102805D3A0F10E
:102D60001001CCB24FF4C06501E0044600250521F6
:102D7000FFF736FFEB48012117B1012F06D00BE01A
:102D80002844026801FA04F31A4304E02844026864
:102D900001FA04F39A430260E248001D4EB1012E8D
:102DA00001D0022E04D128440268A1408A43026067
:102DB00057E528440268A1400A43F8E710B500220D
:102DC000044611461046FFF7C5FF34B1012C06D169
:102DD0000121BDE810400020DDE60021F9E710BD2B
:102DE000D1490A6822F480320A60D0E9002342EA1D
:102DF0000322038942EA0342037B42EA03620B1F78
:102E00001A60D0E9042042EA00200860086840F413
:102E1000803008607047C449091F0968C24A1268B7
:102E2000C2F3062302F00F02C0E90423C1F30462D7
:102E3000C260C1F304428260C1F3052201F03F0188
:102E4000C0E900127047B849091D0868800607D517
:102E500020200860B5480168002901D04068084773
:102E60007047B24AC2E900012520FEF762BC10B5E6
:102E700004462520FEF75DFCD4E9000140EA01206C
:102E8000218940EA0140217B40EA0161D4E9040242
:102E900040EA0220A44A40F48030106041F0004033
:102EA000111F086010BDA049091F086820F00040EC
:102EB00008602520FEF757BC9C483838C06A0028B7
:102EC00000D00047704799493839C8622320FEF77F
:102ED00030BC10B5042802D94FF0FF3010BD07D127
:102EE000934A106820F47F4040EA012010600EE011
:102EF000904B1A684FEAC0004FF0FF0404FA00F448
:102F000022EA040201FA00F141EA020119604FF0DD
:102F1000000010BD70B5042802D94FF0FF3070BD1D
:102F20000CD1854803689BB243EA01410160016806
:102F300021F47F4141EA0221016023E07F4B4FEA07
:102F4000500403EB84031D684FEAC0744FEAD46455
:102F50004FF6FF7606FA04F625EA060501FA04F1B3
:102F600041EA05011960764B19684FEAC0004FF03D
:102F7000FF0404FA00F421EA040102FA00F242EA32
:102F800001021A604FF0000070BDF0B54FF0FF3441
:102F900004283CD8684B00F10B021B1F0126964009
:102FA000C9B1674F3F1F012918D00E224FF4C055F9
:102FB00002EB500C8540012202FA0CF2022916D0D5
:102FC0004FEA500E4FF0010C0CFA0EFC03291BD0F7
:102FD00004292DD01BE01868304338E0B8B91868D0
:102FE00020F478401860386840F040001EE008B1D6
:102FF00002280CD11868A8431860386820F04000F7
:1030000038603868104311E018B1022801D020461A
:1030100027E41868A8431860386820F0400038603A
:10302000386890433860386840EA0C0038600FE038
:10303000396821F040013960042806D0386820EA58
:103040000C0038603868904338601868B0431860E6
:10305000002006E470B54FF0FF36042836D81BD1A7
:10306000334821B1012906D002290CD03CE0016887
:1030700021F010010AE0016821F0100101600168EF
:1030800041F0080106E0016841F0100101600168AB
:1030900021F00801016027E02A4C51EA000207D123
:1030A000226822F400322260226822F480322260F8
:1030B0001122012302EB400503FA05F2102505EB6E
:1030C00040008340012903D0022907D0304670BD5B
:1030D0002068904320602068184304E02068104373
:1030E0002060206898432060002070BD042802D929
:1030F0004FF0FF3070470AD10D4A0129106803D004
:1031000020F0020010600BE040F00200FAE70D4BE7
:103110000122083082401868012915D090431860B8
:1031200000207047080C01401006004044000020B9
:1031300030180140141801402C18014000180140BB
:103140000C180140081801401043E8E7042802D990
:103150004FF0FF30E5E70AD1F74A0129106803D0A4
:1031600020F0010010600CE040F00100FAE7F24BA3
:103170000122283B801C82401868012903D090431B
:1031800018600020CDE71043FAE710B5042802D9F3
:103190004FF0FF3010BD07D1E84A106820F0FF0063
:1031A00040EA010010600EE0E54B1A684FEAC000EB
:1031B0004FF0FF0404FA00F422EA040201FA00F1DD
:1031C00041EA020119604FF0000010BD78B10428F7
:1031D00002D04FF0FF30A4E7D74A08320129106827
:1031E00002D040F0040009E020F0040006E0D44AD8
:1031F000083A0129106804D040F480501060002083
:103200008FE720F48050F9E730B508B1022801D1EA
:10321000032A02D94FF0FF3030BDC94CC84D083CDD
:103220000835012907D038B3012825D0022827D036
:10323000032825D028E0296821F4403141EA0241E1
:10324000296030B1012804D002280BD0032809D00E
:103250001AE0286820F0FF0018432860206840F436
:10326000801010E0286820F47F4040EA03202860A6
:10327000206840F4001006E0206820F4801002E08E
:10328000206820F400102860002030BD20B1042800
:103290000DD04FF0FF3044E7A94A083A01291068E1
:1032A00002D020F0007009E040F0007006E0A24A71
:1032B00008320129106804D020F0010010600020BD
:1032C0002FE740F00100F9E710B5042802D94FF0CC
:1032D000FF3010BD00F10B040123A340974C241FC5
:1032E000012902D02068984308E00121C01C8140D8
:1032F000206832B188432060206818432060002095
:1033000010BD0843F7E720B1042808D04FF0FF3084
:1033100007E78B490839086840F0807004E0864967
:103320000831086840F0020008600020F9E6844B8C
:103330000C33042802D94FF0FF30F2E607D11868A9
:1033400011B140F010000DE020F010000AE04FF045
:10335000010202FA00F2186811B140EA020001E02D
:1033600020EA020018604FF00000DAE620B10428DD
:1033700034D04FF0FF30D4E671480C30022905D02C
:1033800061B1012916D003291CD059E0016841F030
:1033900020010160016841F0400106E0016841F050
:1033A00020010160016821F040010160016821F005
:1033B000800144E0016841F040010160016821F0B2
:1033C0002001F2E7016841F080010160016821F00D
:1033D00020010160016821F0400130E056480830CA
:1033E000022905D061B1012916D003291CD027E09C
:1033F000016841F480710160016841F4007106E0E8
:10340000016841F480710160016821F4007101607C
:10341000016821F4806112E0016841F400710160EB
:10342000016821F48071F2E7016841F48061016074
:10343000016821F480710160016821F4007101606C
:1034400000206EE62DE9F047C0F3072480460D46C4
:10345000164699464FF0FF3A042C10D808F0FF07A3
:1034600039462046FFF791FD48B9032F0AD1F3B240
:103470002A0EC5F307412046FFF7C6FE10B150469D
:10348000BDE8F087C6F307212046FFF7E3FDEAB267
:103490004FEA18412046FFF73DFDC5F307212046BE
:1034A000FFF717FDC6F307412046FFF71FFE310E59
:1034B0002046FFF74BFE09F0FF012046FFF765FEAF
:1034C000C9F307212046FFF732FF0CB1042C03D1CA
:1034D00001212046FFF77AFE012F04D11CB90121FA
:1034E0000420FFF773FE0020CAE770B51D4616469C
:1034F000040004D0042C02D04FF0FF3070BDFF2236
:10350000FFF708FD31462046FFF7C0FE2046FFF7D3
:10351000FAFE00212046FFF79DFD1CB90021204640
:10352000FFF754FE01212046FFF7E0FD2946204623
:10353000FFF71CFF002070BD301801402C1801401F
:1035400010180140042802D94FF0FF30E9E5F74A8E
:10355000116801231B308340194311600020E0E50E
:10356000042802D94FF0FF30DBE5F04A116801234F
:103570001B308340994311600020D2E53EB50D46D3
:103580000446042814D86846FDF772FCE849009800
:103590004843000AB0FBF5F085B22046FFF7E0FF94
:1035A000FF2229462046FFF7B5FC2046FFF7CAFF59
:1035B0003EBD042800D88CE4B3E5FEB507461C46A2
:1035C00015460E466846FDF753FC0020FF21844651
:1035D00061F3070C0121024661F30F2261F31742E8
:1035E0000423014663F30701034664F3070360F312
:1035F0001F6260F30F230846CD4C009967F30F203C
:103600006143090AB1FBF6F165F30F2C61F31F402A
:103610006146FFF717FFFEBD83E5C6490020C8706D
:10362000C5490860C449F4310860C349401E0831E7
:10363000086076E52DE9F041C04D0446164655F880
:1036400024000F4630B90C2003F089FD45F8240012
:10365000002807D0076055F82400466055F824106C
:1036600000208860BDE8F0812DE9F041B2480C38B7
:103670000668B04F0024B14DF8784FF00108401CA7
:10368000F87008FA04F0304209D055F82410486860
:103690000968884755F824008168491C8160641CCA
:1036A000292CEEDBF878A449401EF8700020243164
:1036B0000860D7E73EB50446A148844202D38000A3
:1036C000844200D904466846FDF7D2FB9849009829
:1036D0009C4A484304EB8401B0FBF1F0401EC1B2A8
:1036E0001160111DC0F307200860C020091D08608B
:1036F0001320FEF71EF83EBD9249402010310860AD
:1037000008688007FCD40CE58E4A10B50020103202
:1037100011688907FCD411684FF400730CE0401C59
:1037200080B2984207D988A048F0F8FBFFF7E4FF81
:103730004FF0FF3010BD11680906F0D4002010BD15
:10374000804A0C321060121D09B1902000E0102058
:10375000106010688007FCD4E3E4202200B928221E
:1037600009B142F04002774910310A6008688007C9
:10377000FCD474480C300068C0B2D2E470B582B199
:10378000704DE8606D4C8026A43460700020A070FD
:10379000267362602381608121709020286100205F
:1037A000C9E64FF0FF30C6E630B57AB1654DE86046
:1037B000624CA43460700020A0702073626023818A
:1037C0006081217090202861002030BD4FF0FF30D3
:1037D00030BD5A49A4310861A3E42DE9F041594CA8
:1037E000256901262661A80602D55BA048F096FB54
:1037F000E80719D05148290600F1A4004FF006054A
:1038000081784AD405231022202706290CD2DFE82C
:1038100001F0030E162326410178E1602261017B4D
:10382000090602D5022181701CE786701AE74178EB
:1038300041F00101E160902121610321F3E7418919
:1038400045686D5CE560491C89B24181226102894D
:103850009142E9D1837005E70421817010E0E268AC
:10386000418946687254491C8AB24281018968269E
:10387000A1F1010C624501D12661EBE7012901D0DC
:103880002761EFE62661857000690028CCD0BDE88D
:10389000F041004740212161F5E70529C4D1017BB2
:1038A0008029C1D0E16843894268D154EBE770B503
:1038B0002D49416100204C072C4D02460B4600E08B
:1038C00007DA40F27716464305EB8606C1E9004663
:1038D00001E00A604A60022807D001F10C068E6000
:1038E000401C0C310328EBDB25E68B60F8E730B594
:1038F0001E491F4C30390161002002460B460A6008
:1039000040F27715454304EB8505C1E90125CA60FE
:103910000A61012807D001F118054D61401C1831DA
:103920000228ECDB30BD4B61F8E7000008180140CD
:1039300040420F000C0000200CF0FFFFE44100208B
:10394000A086010000000140776169742061636B0B
:10395000206572720A00000049324320414C206CFD
:103960006F73740D0A0000007CBD0320E8AB0320D8
:1039700000A003204FF000410160F84901200860D9
:1039800029E4F74810B5C16811B1006908308847CB
:10399000F24901201839086010BD70B5F04D294674
:1039A00028784C6948B90CE0A96809B16068884773
:1039B0002046FFF7DFFFA4686C6120680028F3DA77
:1039C00003E0A96809B160688847E4490220183912
:1039D0000860B0E510B5E24C616809B1E14888477C
:1039E000207818B1DD4901200C390860DB49082036
:1039F0001839086010BDDCA048F090BADF490120FA
:103A000008600020091D0860091D08600320091DC9
:103A10000860091D08603EE4DA48D9490160D94AC6
:103A200040F22240121D1060121DD7481060121D76
:103A3000D6481060FF20121D1060CA48803801600F
:103A4000C849D3487C3908601120091D0860091D48
:103A50004FF000700860091DCE480860091DCE486F
:103A60000860091DCD480860091D40F2011008607A
:103A70000020091D0860091D0860091D0860091D56
:103A80000860FF20091D086005E400B5FFF7C4FFCA
:103A9000C449C3480860091DC3480860C1491C31B6
:103AA00008686FF30B0000F232200860091D40F235
:103AB000FD20086000BD10B5A94C1821204647F034
:103AC000FBFA2046FFF7F3FE2046FFF710FF012028
:103AD000FDF72FFE0020FDF72CFE0320FDF729FE49
:103AE0001620FDF726FEA7489C492438091F0860C8
:103AF0000120091F0860994908609849AB480C31BA
:103B000008600120091F0860944996481831086030
:103B10004015091D0860914901200C3908608F4942
:103B200000201439086010BD022802D0032801D1FA
:103B3000ABE763E719E48A490028087003D0002046
:103B400048608860C86010E4854948600DE4844995
:103B500088600AE48249C86007E42DE9F35F0F46F4
:103B600000980D4628B1002F03DD40F6B83087429B
:103B700005DD8FA048F0D2F90020BDE8FC9F784E0B
:103B800040F2DC5834692068002819DA012015F069
:103B9000A1FAF8E74646B54200DC2E463246A06858
:103BA000009947F061FA3003C4E900A00120CBF886
:103BB00000006469AD1BC9F81040002D07DC09E066
:103BC000DFF898B1B1464FF0004A0BF1100B2068B6
:103BD0000028DFDA781BD0E77B4930B40020096881
:103BE0000346012404FA00F20A4205D1401CC0B287
:103BF0000F28F7D9002B09D0744A52F83010002949
:103C000004D002EBC000406830BC084730BC7047AD
:103C10006F4830B40168002410200125A0F1100283
:103C200005FA02F30B4205D1401CC0B22F28F5D98A
:103C3000002CEBD0654A52F830100029E6D002EB98
:103C4000C000406830BC0847E0E710B5102804D336
:103C50001038C0B24FF4C06100E000215A4A303A37
:103C60000A4413680124844044EA03001060564863
:103C7000343808581360044201D0012010BD0020E0
:103C800010BDF0B4102805D31038C3B24FF4C06291
:103C9000282002E00346002219204B4D0124143D48
:103CA0002F1D3E1D052948D2DFE801F00315223003
:103CB0003D001544D5F800C004FA03F12CEA010CCC
:103CC000C5F800C0D5192F688F432F6095192E684D
:103CD0003143296031E01544D5F800C004FA03F1FE
:103CE0002CEA010CC5F800C0D5192F688F431FE0DE
:103CF0001544D5F800C004FA03F62CEA060CC5F802
:103D000000C0D1190D682E430E6016E01544D5F899
:103D100000C004FA03F747EA0C01296091190D6805
:103D20002F430F6009E015442F6804FA03F10F4395
:103D30002F6095192E688E432E602349083911444F
:103D40000A689C4014430C60F0BCFDF7F2BC1028DC
:103D500040D31038C0B24FF4C0613CE018030040BB
:103D60009C420020A0BE0320737069204853206944
:103D7000727168616E646C650A00000000020040A8
:103D800021020C00A0BD03200832200496024753F4
:103D9000222A0101000300080080FF00080A0F0129
:103DA000A0AD032008000040209E0320B8AB0320F4
:103DB0000A6873706920747820706172616D206583
:103DC00072726F720A000000340C0140C83C00207F
:103DD000341201400021FE4A11440A680123834045
:103DE0009A430A601920FDF7BEBC102804D310388E
:103DF000C0B24FF4C06100E00021F54A121D89589D
:103E0000012282400A4201D0012005E4002003E49F
:103E1000102804D31038C0B24FF4C06100E0002174
:103E2000EB4A0C3211440B68012282401A430A60AB
:103E300069E4E84B43F8301003EBC000426062E4F1
:103E40002DE9F04107464FF480701D460E4683422F
:103E500000D90546E0482C4602E002CA02C0241FF1
:103E6000002CFAD102F00FFEDC4800EB0541DC48E3
:103E700039430160C6F31301C20342EA01214160E4
:103E8000002016E4F0B5D54F9E0803F0030400258A
:103E900007EB03430343D2480360C1F31301C30399
:103EA00043EA01214160CC4802E002C802C26D1C15
:103EB000B542FADB002C07DD006842F8030B002056
:103EC00002F80109641EFBD10020F0BDC448C549B9
:103ED0000160C1034160D0F80002C0B213E42DE9D3
:103EE000FF4F85B04FF000078346DDE9120C1D46F9
:103EF0005FEA0108BA46B9463E4600970197029725
:103F00006FD04FF40072BCF1000F03D1002D68D0C8
:103F1000904266D3FFF7DAFF03901C280BD0B2491A
:103F2000B24BB34C852819D0C8281DD14FF4807AE4
:103F3000D146022616E0AC48012624380090AB4852
:103F40004FF47F273D380190A948914640380290B0
:103F5000A3483A210160C103416005E04FF4805756
:103F6000914601268DE81A00002408E004FB09525E
:103F70000AFB04714B460198FFF784FF641CB442AE
:103F8000F4D3BCF1000F0BD0002005E000EB0B01D7
:103F90006A5C08F80020401C07998842F6D334E098
:103FA000002405E00AFB0471009802F072FD641C15
:103FB000B442F7D30798CBF50072824200D902468B
:103FC000002005E018F8003000EB0B01401C6B549A
:103FD0009042F7D34FF000084FF4807B13E00024A9
:103FE0000CE01AE007EB04220AFB08215B462A4694
:103FF0000298FFF725FF641C05F58075B4EB192FB7
:10400000F0D308F10108B045E9D303981C2804D186
:10401000734804210160C103416009B0BDE8F08F1D
:10402000F0B56F4CDDE9057C4CF205052560E50334
:104030006560D4F80062890141EA421141EA031146
:1040400041EAC70141EA8C0106F083020A430623D4
:104050002360656002F083020A4342EA8031C4F8BB
:1040600000124AF20101216065604CF28501216075
:104070006560D4F800122360656001F0BF0141EA79
:104080008010C4F800024AF2C10020606560F0BDF3
:10409000F0B5534CDDE9057C4CF205052560E503E0
:1040A0006560D4F800624CF2350EF6B2C4F800E058
:1040B0006560D4F800E20EF0FF0E46EA0E264FF0DF
:1040C000060EC4F800E06560890141EA421141EA48
:1040D000031141EAC7014BF6837241EA8C01164095
:1040E0000E4346EA8030C4F8000242482060656012
:1040F000F0BD0CB5FFF7EAFE002201211C280ED00E
:10410000852803D0C82801D0881E0CBDCDE9001237
:104110000023012211461846FFF7BAFF07E0CDE958
:1041200000120023012211461846FFF779FF0020F4
:104130000CBDDEE72DE9F04106462F480F46406AE8
:10414000A8B18568ADB1D5E90310B1FBF0F3B34276
:1041500011D982B17FB1B1FBF0F3B418A34202D2FE
:10416000B1FBF0F0821B0020904604460EE00320D5
:1041700087E60B2085E6012083E62869EA6A04FBCE
:104180000071301990470028F2D1641C4445F4D3E3
:1041900077E62DE9FC5F1546174A07460E46506A3A
:1041A00060B3816859B3C968B9423FD945B33EB3DA
:1041B0001446C068002114F0F4FC606A7919846820
:1041C000E068814200D9C51BA069B7FBF0F118E097
:1041D0002C0C0140C83C0020002200400000FFFFE2
:1041E000002000409FC002004408008048C000BC7E
:1041F0004290008001A001000C00002012E013E0BA
:1042000014E001917919491EB1FBF0F201994FF0C8
:104210000009511A01F1010A02F0A1FF009038B122
:10422000002074E00320A8E40B20A6E40120A4E40D
:10423000FC48406AC06814F0C5FC06209DE4019863
:10424000A26900EB080B636A0BFB02F00099984728
:104250005FEA000905D0F348406AC06814F0B2FC78
:1042600058E0BAF1010F0ED0B8F1000F15D0AAF145
:10427000010080452DD12A463146009846F0F4FED3
:104280002E4400252DE0A0692A46B7FBF0F100FB83
:104290001171009808443146F0E7A069B7FBF0F1CE
:1042A00000FB1171421AB7FBF0F100FB117100988D
:1042B0000844314646F0D8FEA069B7FBF0F100FB98
:1042C0001171411A0E44B7FBF0F100FB1171401A55
:1042D00006E03146A269009846F0C6FEA069064491
:1042E0002D1A216B584688475FEA0009B3D121692E
:1042F000A069B0FBF1F2B0FBF1F000FB0BF000990C
:10430000FFF718FF5FEA0009A5D108F10100804618
:10431000504594D3009802F05AFFC248406AC068E2
:1043200014F050FC484628E470B50024960802F0CA
:104330000305DB0701D0BC4B00E0BC4B521EC2F3AF
:10434000090243EA0243BA4A1360C0F31300D303DD
:1043500043EA00205060B74802E004C804C1641C6E
:10436000B442FADB002D0BDD006841F8030BC5F108
:104370000400002202E001F80129401E0028FAD1C1
:10438000002070BD2DE9F74F0646C5B292460024C5
:104390004FF4805002F0E3FE5FEA00081ED026F0E2
:1043A000FF004FF4807B814600235A464146FFF7C9
:1043B000BBFFC5F58077574539D23A4608EB050172
:1043C000019846F051FE019809F580753E18AAEB58
:1043D0000700070A00F0FF09DA4613E00620BDE8EF
:1043E000FE8F0023D446524641462846FFF79CFFE5
:1043F00062464146304646F037FE641C05F580753E
:1044000006F58076BC42ECD3B9F100000AD0024632
:10441000002341462846FFF787FF4A46414630467B
:1044200046F022FE404602F0D2FE0020D7E708EB1D
:10443000050152460198F3E72DE9F74F002482B0B9
:104440000F468246B0F1016F01D2054601E04FF000
:10445000FF350499681C5144009166D0B1F1016F99
:1044600001D8049C01E0CAF101646E49C86848B3F0
:104470000A6925F07846964227D234B32FB30068F4
:10448000002114F08EFB4FF4805002F068FE5FEACA
:1044900000081CD047F6FF7000EA1539C6F30B057B
:1044A000C5F58056B44200D826464FEA0930834607
:1044B0004FF480524146FFF765FF584602F000FB7B
:1044C000002010E0032005B0A8E50120FBE75548D7
:1044D000C068006814F076FB0620F4E73A5C4319E4
:1044E000401C08F80320B042F8D300250BEB052050
:1044F00008EB05224FF4807102F0DAFA6D1C102DE2
:10450000F4D3B44209D03744A41B00254FF480569D
:1045100009F10109B442C8D8C6E7404602F057FE87
:104520004048C068006814F04DFB3E494869E8B156
:104530004FF001605246824501D3104604E0009AD4
:10454000824201D24FF0FF30421C0FD0049A896999
:10455000121B831841F000618B4200D90A1A05B082
:104560003919BDE8F04FC0F3130012E60020AAE7A6
:104570000CB5FFF7ABFC00211C280ED0852803D01A
:10458000C82801D0481E0CBD0023009101911A4695
:1045900019461846FFF77CFD07E0002300910191C2
:1045A0001A4619461846FFF73BFD00200CBDDFE711
:1045B0002DE9F0411B4E05461446706A0F46E8B1DE
:1045C0008168E9B1C968A9421CD9DCB1D7B1C0681A
:1045D000002114F0E6FA706A2A198068C1688A42DC
:1045E00000D94C1B436A2246394628469847044660
:1045F000706AC06814F0E6FA204642E4032040E402
:104600000B203EE401203CE42DE9F05F00254FF053
:10461000016990468B4604464FF0010A48450BD28B
:1046200027460BE00C000020EBC000EC0BC000BCE8
:1046300000200040002200404FF0FF37781C04EBC0
:10464000080621D04E4501D8454601E0C4F1016578
:10465000F749C86810B30B6927F078429A4220D214
:10466000FDB1BBF1000F1CD00068002114F099FAD5
:104670002A4659463846FFF785FEED484FF0000AB6
:10468000C068006814F09EFAE9484169F9B14946EA
:104690008C420AD28E4206D34C4606E00320BDE887
:1046A000F09F0120FBE74FF0FF34611C0FD08069C1
:1046B000A8EB0502A11840F00060814200D9021B5E
:1046C0000BEB0501C4F31300BDE8F05F70E7504643
:1046D000E5E72DE9F04F89B00024DFF858A30294F4
:1046E00003940494D44EDAF80000A346B04201D1FA
:1046F000012092E44FF40079484602F030FD059025
:104700000028F6D0802002F02AFD050004D00DF12B
:1047100008084FF0FF372EE000207EE45CB3012153
:10472000CDE90091802229460020059BFFF7D7FBA9
:104730002868B04225D104F0B1FB03231A4639465C
:1047400006A802F0BFFA742205F10C0106A802F0D7
:104750007FFA04A906A802F065FA686804998842FD
:104760000FD1DAF80000B0420DD080222946B148BE
:1047700046F07AFC07E0802229461005FFF744FF47
:10478000D6E748F82470641C022CC7DBDDE902017F
:104790000844801C1BD00298002809DAFFF7E8FEC5
:1047A0008022A4491005FFF747FEFFF7A2FC0EE0A8
:1047B000002904DBDAF804006968884207D0CDE9F3
:1047C000009B80229B490020059BFFF788FB0598F2
:1047D00002F0FDFC284602F0FAFC89E770B50B46B2
:1047E00001469448092932D2DFE801F031051A1C4C
:1047F0001F2123252700017BCC070ED1447BC57BDD
:104800002143847B2C432143047C407C214301438E
:1048100003D0884918460C3115E08549303111E044
:10482000406900E0806918600FE0C069FBE7006A3A
:10483000F9E7406AF7E7806AF5E77E492C31542AA8
:1048400000D35422184646F00FFC002070BD4FF0F4
:10485000FF3070BD7FB54FF0FF35002959D0002AD9
:1048600057D0744C092804F10C0652D2DFE800F04E
:104870005105070A0D1013161900304616E0086896
:10488000606115E00868A06112E00868E0610FE06F
:10489000086820620CE00868606209E00868A062AD
:1048A00006E0542A00D3542262482C3046F0DCFB48
:1048B00004F0F4FA03231A46294602A802F002FA89
:1048C0005D4820607422314602A802F0C1F9211D22
:1048D00002A802F0A7F9FFF74BFE80225549100508
:1048E000FFF7AAFDFFF705FC4FF40075284602F01C
:1048F00036FC04000AD00020CDE900502346802277
:104900004C49FFF7ECFA204602F061FC002004B0AD
:1049100070BD2846FBE70622014601205EE706221D
:104920000146012096E704220146022056E70422B0
:10493000014602208EE70422014610464EE704227B
:104940000146104686E704220146052046E7042278
:10495000014605207EE70422014606203EE70422A8
:104960000146062076E704220146072036E70422A6
:10497000014607206EE770B50C460546FFF7F8FDC7
:104980002E484FF00402294614B1FFF755FD01E00F
:10499000FFF73AFEFFF7ADFB002070BD70B50C4687
:1049A0000546FFF7E5FD25484FF00402001D2946A6
:1049B00014B1FFF741FD01E0FFF726FEFFF799FB79
:1049C000002070BD10B5014654220820FFF706FFF5
:1049D000002010BD10B5014654220820FFF73AFF11
:1049E000002010BD7FB516A105460FC98DE80F0048
:1049F0000F48002410226946A83046F0BBFB38B9A6
:104A00000B491022A8311248FFF7FEFD040005D122
:104A100007491022A831284646F026FB204676E7B3
:104A20000121FDF7B9B94FF47A714843F8E7000066
:104A30000C000020B44200209FFFFFA0800000086F
:104A4000FFFFFFFFFFFFFFFFFFFFFFFFFFFFFFFF76
:104A5000101000080021FDF79FB940008140FB487D
:104A60000160704770B5F949C0B209680323032893
:104A70000BD90420440003FA04F20A4203D1401C7B
:104A8000C0B20828F6D3082834D042009340F04C36
:104A90000B4205D000EB800314F82350032D1FD0E8
:104AA000012393400B4205D000EB800314F8235000
:104AB000012D15D0022393400B421BD000EB800246
:104AC00014F82210022915D10321FFF7C6FF04EBC9
:104AD0008200C16800290DD00069BDE87040084718
:104AE0000321FFF7BAFF04EB83004168002901D0DE
:104AF0008068F2E770BD0020B4E70120B2E7022031
:104B0000B0E70320AEE70420ACE730B50728039CEC
:104B100000D9F9B100EB4000000100F180408D6840
:104B2000C0F81854CD68C0F81C5443EA0443C0F8D8
:104B3000203402B101224968C1F3100142EA410167
:104B4000C0F82C14D0F8241441F00101C0F824144A
:104B5000002030BD012030BD10B5BE4C21680128B9
:104B6000C1F303126FF30B0141F000430AD002209E
:104B70009100B1FBF0F1090241EA0211014319432E
:104B8000216010BD0420F3E7B34A116840B1022848
:104B900009D001280AD1AE48A030007802215CE794
:104BA00041F4807001E041F4007010607047AA4841
:104BB000001F0068C0F30D00704738B5A6480468B0
:104BC000A34DE00505F1A0050FD5A44901204870CB
:104BD0000020FFF7D9FFFFF7EAFFADF80000686893
:104BE00018B16A68012168469047A00509D50220DE
:104BF000FFF7CAFFA868002803D0AA68002108466A
:104C0000904738BD9248A030C168002903D0018A7E
:104C1000C26893481047704770B50D468E490446E8
:104C2000002008601420FCF784FD002C0ED0002129
:104C30002846FCF7A7FE8649A03108700878BDE831
:104C40007040022300228749FCF779BE70BD804A7C
:104C5000A03228B1012805D0022800D19160704708
:104C600051607047D16070477B4A00F00F011068B7
:104C700020F4FF2020F0100008431060106808297D
:104C800040F0500005DA20F07C4040F4800040F015
:104C9000F840106070477048016821F4FF2121F04E
:104CA00010010160016841F05E0141F4806141F44E
:104CB000800101607047684A116821F4FF2121F0EA
:104CC00010011160116841F05C0110B141F4000065
:104CD00001E021F4000020F4800040F0200040F0CA
:104CE0004070106070475C48016821F4FF2121F09A
:104CF00010010160016841F05D0141F48001016033
:104D00007047F0B50C287AD24FF6FC72914200DD64
:104D100011464F4CA03421824F4D00F00F002A68FD
:104D200022F010022A60022307E0227802EB4202FE
:104D3000120102F18042C2F82434227802EB4202CE
:104D4000120102F18042D2F82424D207EDD1424B65
:104D500022781B1F02EB4202120102F18042C2F8CC
:104D600010343F4B227802EB4202120102F18042E2
:104D7000C2F814342B6819220127082840D00928CA
:104D800049D00A2854D00B286ED002EB8006227836
:104D900002EB4202120102F18042C2F8286400F1E3
:104DA0000B0607FA06F21A432A60282242EA412239
:104DB000217801EB4101090101F18041C1F82C2466
:104DC000224B1B1F1968227807EB420207FA02F2F6
:104DD00091431960217801EB4101090101F1804102
:104DE000C1F82474296841F010010143082805DA4C
:104DF00021F07C4040F4800040F0F8412960F0BD93
:104E0000267806EB4606360106F18046C6F82824C9
:104E100043F40062C8E726784FF0210C06EB460207
:104E2000120102F18042C2F828C443F40052BBE7E9
:104E300026784FF0290C06EB4602120102F180425F
:104E4000C2F828C443F40042AEE70DE00404004079
:104E50003443002010070040040201400C000020F1
:104E600000800220054C01082278312602EB420224
:104E7000120102F18042C2F8286443F4003293E741
:104E8000FE4A116821F010011160002803D0FC488F
:104E90000078FDF71FB87047F84B10B51B1FC0F323
:104EA0000D021868F74C204040EA823018601A1D45
:104EB000106840F0800011B140F4001001E020F4CF
:104EC0000010106010BD30B5EC4D00F00F040B4623
:104ED000286820F4FF2020F01001214329601146AA
:104EE0001846FFF7D9FF2868082C40F0100005DAB3
:104EF00020F07C4040F4800040F0F840286030BD55
:104F0000DE4A116810B1012805D008E021F48010B4
:104F100040F4002103E021F4002040F480111160EE
:104F20007047D94A1168D94B194041EA003040F026
:104F30000040106070470188B1F5005F02D3A1F511
:104F4000005101E001F500510180704710B50021CA
:104F50000846FFF761FE0120FFF7D2FFCC4C00208E
:104F60006070FFF798FE01F0B2FDFFF720FEA08011
:104F70000020FFF785FFA08810BD7CB50021084602
:104F8000FFF74AFE0120FFF7BBFFC14C002565700B
:104F90000120FFF790FE01F09AFDFFF708FEADF843
:104FA00004000020FFF76CFF211D01A8FFF7C3FFDD
:104FB00065700020FFF77FFE01F089FDFFF7F7FD28
:104FC000ADF800000020FFF75BFF211D6846FFF7EA
:104FD000B2FFBDF80000BDF80410401A00EBD0701D
:104FE0004FF4005101EB600080B2AA49C0EB4010C1
:104FF00001EB80007CBD38B500240546ADF80040CB
:10500000FFF7A4FF00210846FFF706FE0120FFF787
:1050100077FF9F494C702846FFF726FE01F057FDA9
:10502000FFF7C5FDADF800000020FFF729FF984904
:105030006846091DFFF77FFFBDF8000038BD08B5C1
:10504000FFF784FF00210846FFF7E6FD0120FFF788
:1050500057FF8F4900204870FFF745FE01F037FDEC
:10506000FFF7A5FDADF800000020FFF709FF884914
:105070006846091DFFF75FFFBDF8000008BD10B5C9
:10508000FFF764FFBDE8104077E770B5102804D340
:105090001038C0B24FF4C06100E000217E4A8D5844
:1050A000121D8C58121D8A587B4B083BCB587A4EE8
:1050B000361F8E590121814029420DD0214201EA3B
:1050C000020102D121B1022070BD19B1042070BDCE
:1050D000012070BD032070BD194203D1314201D0BF
:1050E000062070BD052070BD70B56C4A044610687E
:1050F0001621C0F30110C5001046083501F03EFC32
:1051000008B1012100E0022165486C4304FB010065
:105110004C43B0FBF4F15C480830026822F47F4253
:1051200002600268491E42EA0121016070BD70B54B
:10513000534A04461432506901685A4B19400160C1
:10514000D4E9021008436168084351690860207877
:10515000524D48B101220221284601F001FC0122F2
:105160001321284601F0FCFB607848B1012211466A
:10517000284601F0F5FB01221221284601F0F0FB40
:105180002069BDE87040AFE73D4A00B5143285B0F4
:105190004249516178B91421684645F08DFF1020CD
:1051A00003900020029001904FF4FA5004900120E7
:1051B0008DF801006846FFF7BAFF242001F0C5FB17
:1051C0002420FCF7B6FA05B0002000BD70B5334AC4
:1051D00005460E4610681621C0F30110C4001046A3
:1051E000083401F0CBFB08B1012200E0022205FBEC
:1051F00004F0504300EB4601680060435043B1FBAC
:10520000F0F1214808300268274B1A40026002681A
:10521000491E42EA01210160016841F0010101607B
:1052200070BD2DE9F0411D4D09210835284601F0DA
:10523000A5FB2E1F30B10921304601F09FFB08B9B4
:10524000681528600821284601F098FB38B108212C
:10525000304601F093FB10B94FF4807028600721AD
:10526000284601F08BFB30B10721304601F086FB68
:1052700008B9802028600621284617E00402014072
:10528000D4430020FF3F00F010070040FF0F00F064
:105290000C0000200C3FECFF100C0140001A0140F4
:1052A00000688909CFFFBFFCFF00FCFF01F066FB2F
:1052B00040B10621304601F061FB18B9402028605A
:1052C00001F032FC0521284601F058FB30B10521E0
:1052D000304601F053FB08B92020286004212846FD
:1052E00001F04CFB30B10421304601F047FB08B916
:1052F000102028600321284601F040FB30B1032133
:10530000304601F03BFB08B90820286002212846FE
:1053100001F034FB48B30221304601F02FFB20BBE3
:1053200004202860FE4C6069C06800F00F01E0694D
:1053300048B91AE060694069638CE26942F8230069
:10534000608C401C6084491EC9B2F3D2608C218CF1
:1053500088420AD3002739460420E76101F0DAFBCE
:10536000E16A09B1208C884767840121284601F051
:1053700005FB30B10121304601F000FB08B90220E5
:1053800028600021284601F0F9FA002807D0002102
:10539000304601F0F3FA002801D101202860BDE871
:1053A000F081DF49C8627047DD49086370472DE925
:1053B000F0410746DA480E460021183013F0E1FBB1
:1053C00010B14FF0FF30EAE7D64D012212212846F6
:1053D00001F0C6FAD34940F2FF10083108602420DA
:1053E00001F0B3FACE4C052067622685002666855B
:1053F00001F083FB0121402001F08CFB01221146CA
:10540000284601F0ADFA286840F00100286000212C
:10541000A06913F0C6FBA06913F0BEFB00220121B6
:105420002846A66101F09CFA0020B8E770B5BC4C94
:1054300015466062218500206085052001F05DFB36
:105440000121402001F066FB2563B64C01221221A8
:10545000204601F085FA01221146204601F080FA2B
:10546000216841F001012160002070BD70B5AC4C95
:105470001546E061218400206084052001F02EFBA8
:105480000121042001F046FBE562A64C0122132114
:10549000204601F065FA242001F057FA012202218A
:1054A000204601F05DFA216841F0010121600020F1
:1054B00070BDF0B59B4F14460D46064685B00022E0
:1054C0000121384601F04CFA01221221384601F040
:1054D00047FA042001F011FB0021402001F01AFBE3
:1054E000212040EAC4108F49CDE901051031C806DA
:1054F00000900020CDE90310024669463046FCF7D3
:10550000FDF905B0F0BD2DE9F041864D16460F4678
:10551000804601221221284601F022FA814840F2F9
:10552000FF1108300160242001F00FFA012212213E
:10553000284601F015FA3D210420FCF723FA040067
:105540004FF0FF3202D0FCF7ACFC08B1104626E762
:105550003A4641462046FFF7ACFF0223002231467F
:105560002046FCF7ECF928682C4640F480102860AF
:1055700001221146284601F0F3F9206840F00100AD
:10558000206000200BE7F0B50E46074685B01546B3
:105590000021042001F0BEFA624C002202212046C4
:1055A00001F0DEF9206820F40010206001221321B0
:1055B000204601F0D5F9042001F090FA00210420E2
:1055C00001F0A8FA574869461430CDE902062420B4
:1055D00040EAC5100190A00500900020024604900A
:1055E0003846FCF78BF98CE72DE9F0410E4607466B
:1055F000154639210520FCF7C5F904004FF0FF32AC
:1056000002D0FCF74EFC08B11046C8E632463946D7
:105610002046FFF7B8FF0223002229462046FCF768
:105620008EF9404C206840F400102060242001F0E6
:105630008CF901220221204601F092F9206840F005
:10564000010020600020AAE63649002010B5103184
:105650000860344C08340721204601F08FF90028F7
:10566000F9D0002201212F4801F07AF92E48016873
:1056700041F0020101600420FCF72CFC2B490120C1
:10568000887010BD10B500220221264801F068F98B
:1056900025483030016841F0020101600520FCF727
:1056A00019FC22490120887010BD10B5002202218A
:1056B0001C4801F055F91D490120887010BD2DE9E5
:1056C000F0414FF48066304601F049FD044614482D
:1056D00010210025C0E90251012141704FF4FA5117
:1056E00045600161FFF750FD002C2DD0104A214686
:1056F0000020831808C1401CFF28FAD90C48FA3052
:10570000AFF2BB02C4F8FC03374631462046FFF730
:10571000FAFE064EB0780028FDD0B5700AE0000011
:10572000E8430020001A0140E40400400C0000207F
:105730000002CDABAFF2EF0239462046FFF7E3FEA1
:10574000B0780028FDD0B57029E610B5040000D16E
:105750003C240B21FE4801F011F908B1042000E0BF
:10576000082060434FF4FA41B1FBF0F0F849091DFD
:10577000086010BD2DE9F0410C46054616460B2188
:10578000F34801F0FBF8020015D0042D01D3142CCE
:1057900034D2DFF8BCC304F110010CF1080C0CF199
:1057A0000400031D1F1D082D28D2DFE805F0090C99
:1057B0001319151F1A21082DEBD3102C1ED2E8E760
:1057C0003246214604E012B13246214612E032460A
:1057D00060460FE0002AF7D032462146184609E01D
:1057E00012B13246214604E0324603E03246F5E784
:1057F00032463846BDE8F04101F0B2B8CFE5D449B1
:10580000183108607047D2490A6822F038020A60ED
:105810000A6802430A607047CD490A6822F007020D
:105820000A600A6802430A607047C9490A6822F0A0
:10583000C0020A600A6802430A60704770B5C44D2E
:1058400004460020286060882179A27908436179A4
:105850001143084340F4805028602089FFF775FF0A
:1058600022780821284601F07BF82846BDE87040E0
:105870000022092101F074B8B6490868800709D5EB
:10588000086840F002000860B3480168002901D0B0
:10589000406808477047AF490868C00710D00868DB
:1058A00040F001000860AB491039086820F48030EE
:1058B0000860A94808300168002901D040680847FD
:1058C0007047A449086840070AD5086840F00400FA
:1058D0000860A14810300168002901D040680847DD
:1058E00070479C49086800070AD5086840F008001E
:1058F0000860994818300168002901D040680847BD
:105900007047954AC2E900010920FBF712BF924A8D
:105910000832C2E900010A20FBF70BBF8E4A1032A1
:10592000C2E900010B20FBF704BF8B4A1832C2E921
:1059300000010C20FBF7FDBE864A143A116810B135
:1059400041F0080001E021F0080040F00400106080
:105950007047804940F480301039086070477D49B5
:105960001039086820F48030086070477949401E7B
:105970000C3940F440300860704776490C390868AB
:1059800020F440300860704710B50B20FBF7D1FEC3
:1059900070491439086840F00100086010BD6D4A74
:1059A000EC3211688143116070476A4AEC32116829
:1059B00001431160704710B5684C227CB2B1010000
:1059C0002046007817D00521FDF70AF9207A052135
:1059D000FDF706F9207801220021FDF7BBF9207AB6
:1059E0000122BDE810400021FDF7B4B9BDE8104028
:1059F0005BA046F093BA2179FDF7F2F8217B207A7B
:105A0000BDE81040FDF7ECB81F2800D91F205D4A03
:105A1000116821F4784141EAC020106070470246C5
:105A20005848016821F4E02141EA02410160012265
:105A3000172100F095BF02465248016821F4E001A9
:105A400041EA025101600122132100F089BF4D4A51
:105A5000103211686FF30F010143116070471EB5DA
:105A600004466846FBF704FA009843F60951484398
:105A700004EB80106100B0FBF1F0424A401E10328E
:105A8000C1B2106820F47C1040EA014010601EBDD5
:105A90003D48016821F000510160016821F080411A
:105AA0000160704710B5012200212D20FDF752F949
:105AB0000121BDE810402D20FDF76DB810B5012281
:105AC00000212D20FDF746F90021BDE810402D20D2
:105AD000FDF761B810B5012200212720FDF73AF942
:105AE0000021BDE810402720FDF755B810B5012270
:105AF00000212720FDF72EF90121BDE810402720C5
:105B0000FDF749B810B54FF6FF74FFF7E3FF641EC9
:105B1000FDD24FF4BA70FFF79AFFBDE81040E5E7F9
:105B200010B5FFF7CBFF0120FFF745FF0B4C00211D
:105B30002078FDF730F8207A0021FDF72CF8FFF7E8
:105B4000C9FFFFF7AFFF012218210E481EE0000039
:105B500000160140140600404C0000201C440020A8
:105B60006572726F72203A203738313620696F20A3
:105B70006D6170206D75737420696E69742E2E2EA0
:105B80002E0D0A00001C01401012014000F0E8FE3A
:105B90000020FFF710FFF648FFF761FF4FF4BA70DF
:105BA000FFF755FFBDE81040A0E710B5FFF792FFE3
:105BB0000020FFF700FF00220A21EE4800F0D0FE8F
:105BC0000120FFF7F8FEEC4C00212078FCF7E3FF02
:105BD000207A0021FCF7DFFFBDE810406EE7E748C0
